{
  "contractName": "ConwaysGameOfLife",
  "abi": [
    {
      "inputs": [],
      "stateMutability": "nonpayable",
      "type": "constructor"
    },
    {
      "stateMutability": "payable",
      "type": "fallback",
      "payable": true
    },
    {
      "stateMutability": "payable",
      "type": "receive",
      "payable": true
    },
    {
      "inputs": [],
      "name": "getWorld",
      "outputs": [
        {
          "internalType": "string",
          "name": "",
          "type": "string"
        }
      ],
      "stateMutability": "view",
      "type": "function",
      "constant": true
    }
  ],
  "bytecode": "0x608060405234801561001057600080fd5b506040518060400160405280601981526020017f2e4f2e2e2e2e2e4f2e2e4f4f4f2e2e2e2e2e2e2e2e2e2e2e2e000000000000008152506000908051906020019061005c929190610099565b506005600160006101000a81548160ff021916908360ff16021790555060196001806101000a81548160ff021916908360ff160217905550610144565b828054600181600116156101000203166002900490600052602060002090601f0160209004810192826100cf5760008555610116565b82601f106100e857805160ff1916838001178555610116565b82800160010185558215610116579182015b828111156101155782518255916020019190600101906100fa565b5b5090506101239190610127565b5090565b5b80821115610140576000816000905550600101610128565b5090565b610ae9806101536000396000f3fe6080604052600436106100225760003560e01c806398f011561461005757610055565b36610055576509184e72a00034106100535761003c6100e7565b60009080519060200190610051929190610a08565b505b005b005b34801561006357600080fd5b5061006c610966565b6040518080602001828103825283818151815260200191508051906020019080838360005b838110156100ac578082015181840152602081019050610091565b50505050905090810190601f1680156100d95780820380516001836020036101000a031916815260200191505b509250505060405180910390f35b60608060008054600181600116156101000203166002900480601f0160208091040260200160405190810160405280929190818152602001828054600181600116156101000203166002900480156101805780601f1061015557610100808354040283529160200191610180565b820191906000526020600020905b81548152906001019060200180831161016357829003601f168201915b505050505090506060815167ffffffffffffffff811180156101a157600080fd5b506040519080825280601f01601f1916602001820160405280156101d45781602001600182028036833780820191505090505b50905060008060008060007f4f0000000000000000000000000000000000000000000000000000000000000090506000805b60018054906101000a900460ff1660ff168160ff161015610957576000915060009650600095506000945060009350600160009054906101000a900460ff1660ff168160ff1610156102635760018054906101000a900460ff1696505b6000600160009054906101000a900460ff1660ff166001830160ff168161028657fe5b0660ff1614156102a357600160009054906101000a900460ff1695505b60018060019054906101000a900460ff160360ff16600160009054906101000a900460ff16820160ff1611156102e45760018054906101000a900460ff1694505b6000600160009054906101000a900460ff1660ff16600160009054906101000a900460ff16830160ff168161031557fe5b0660ff16141561033257600160009054906101000a900460ff1693505b827effffffffffffffffffffffffffffffffffffffffffffffffffffffffffffff19168988600160009054906101000a900460ff1684030160ff168151811061037757fe5b602001015160f81c60f81b7effffffffffffffffffffffffffffffffffffffffffffffffffffffffffffff191614156103b35781806001019250505b827effffffffffffffffffffffffffffffffffffffffffffffffffffffffffffff19168988600160009054906101000a900460ff1660018a860301030160ff16815181106103fd57fe5b602001015160f81c60f81b7effffffffffffffffffffffffffffffffffffffffffffffffffffffffffffff191614156104395781806001019250505b827effffffffffffffffffffffffffffffffffffffffffffffffffffffffffffff19168960018884030160ff168151811061047057fe5b602001015160f81c60f81b7effffffffffffffffffffffffffffffffffffffffffffffffffffffffffffff191614156104ac5781806001019250505b827effffffffffffffffffffffffffffffffffffffffffffffffffffffffffffff191689858960018060009054906101000a900460ff16018503010160ff16815181106104f557fe5b602001015160f81c60f81b7effffffffffffffffffffffffffffffffffffffffffffffffffffffffffffff191614156105315781806001019250505b827effffffffffffffffffffffffffffffffffffffffffffffffffffffffffffff19168985600184030160ff168151811061056857fe5b602001015160f81c60f81b7effffffffffffffffffffffffffffffffffffffffffffffffffffffffffffff191614156105a45781806001019250505b827effffffffffffffffffffffffffffffffffffffffffffffffffffffffffffff19168985600188600160009054906101000a900460ff16860103030160ff16815181106105ee57fe5b602001015160f81c60f81b7effffffffffffffffffffffffffffffffffffffffffffffffffffffffffffff1916141561062a5781806001019250505b827effffffffffffffffffffffffffffffffffffffffffffffffffffffffffffff19168986600160009054906101000a900460ff1684010360ff168151811061066f57fe5b602001015160f81c60f81b7effffffffffffffffffffffffffffffffffffffffffffffffffffffffffffff191614156106ab5781806001019250505b827effffffffffffffffffffffffffffffffffffffffffffffffffffffffffffff19168987600188600160009054906101000a900460ff16860103010360ff16815181106106f557fe5b602001015160f81c60f81b7effffffffffffffffffffffffffffffffffffffffffffffffffffffffffffff191614156107315781806001019250505b827effffffffffffffffffffffffffffffffffffffffffffffffffffffffffffff1916898260ff168151811061076357fe5b602001015160f81c60f81b7effffffffffffffffffffffffffffffffffffffffffffffffffffffffffffff191614156108795760028260ff1614806107ab575060038260ff16145b15610814577f4f00000000000000000000000000000000000000000000000000000000000000888260ff16815181106107e057fe5b60200101907effffffffffffffffffffffffffffffffffffffffffffffffffffffffffffff1916908160001a905350610874565b7f2e00000000000000000000000000000000000000000000000000000000000000888260ff168151811061084457fe5b60200101907effffffffffffffffffffffffffffffffffffffffffffffffffffffffffffff1916908160001a9053505b61094a565b60038260ff1614156108e9577f4f00000000000000000000000000000000000000000000000000000000000000888260ff16815181106108b557fe5b60200101907effffffffffffffffffffffffffffffffffffffffffffffffffffffffffffff1916908160001a905350610949565b7f2e00000000000000000000000000000000000000000000000000000000000000888260ff168151811061091957fe5b60200101907effffffffffffffffffffffffffffffffffffffffffffffffffffffffffffff1916908160001a9053505b5b8080600101915050610206565b50869850505050505050505090565b606060008054600181600116156101000203166002900480601f0160208091040260200160405190810160405280929190818152602001828054600181600116156101000203166002900480156109fe5780601f106109d3576101008083540402835291602001916109fe565b820191906000526020600020905b8154815290600101906020018083116109e157829003601f168201915b5050505050905090565b828054600181600116156101000203166002900490600052602060002090601f016020900481019282610a3e5760008555610a85565b82601f10610a5757805160ff1916838001178555610a85565b82800160010185558215610a85579182015b82811115610a84578251825591602001919060010190610a69565b5b509050610a929190610a96565b5090565b5b80821115610aaf576000816000905550600101610a97565b509056fea2646970667358221220ec84562171d19676a30780a028aab22c050a2c358bde41136478215caeace3cc64736f6c63430007040033",
  "immutableReferences": {},
  "source": "// SPDX-License-Identifier: MIT\npragma solidity >=0.4.22 <0.9.0;\n\n\ncontract ConwaysGameOfLife {\n  string world;\n  uint8 width;\n  uint8 worldLength;\n\n  constructor() {\n    world = '.O.....O..OOO............';\n    width = 5;\n    worldLength = 25;\n  }\n\n  receive() external payable {\n    // Greater than or equal to 0.00001\n    // below this is just for gas\n    if (msg.value >= 10000000000000) {\n      world = nextBoard();\n    }\n  }\n\n  fallback() external payable {  }\n\n  function getWorld() public view returns(string memory) {\n    return world;\n  }\n\n  // Uncomment when running tests\n  // function setWorld(string memory newWorld) public {\n  //   world = newWorld;\n  // }\n\n  function nextBoard() private view returns(string memory) {\n    bytes memory originalWorldBytes = bytes(world);\n    bytes memory resultWorldBytes = new bytes(originalWorldBytes.length);\n    uint8 topEdgeDelta = 0;\n    uint8 rightEdgeDelta = 0;\n    uint8 bottomEdgeDelta = 0;\n    uint8 leftEdgeDelta = 0;\n    byte livingCell = byte('O');\n\n    // Maximum for this is 8, so 8 bits is more than enough\n    uint8 numLiveNeighbours = 0;\n\n    for(uint8 i=0;i<worldLength;i++) {\n      numLiveNeighbours = 0;\n      topEdgeDelta = 0;\n      rightEdgeDelta = 0;\n      bottomEdgeDelta = 0;\n      leftEdgeDelta = 0;\n\n      // This is a top-edge cell\n      if (i < width) {\n        topEdgeDelta = worldLength;\n      }\n\n      // This is right-edge cell\n      if ((i + 1) % width == 0) {\n        rightEdgeDelta = width;\n      }\n\n      // This is a bottom-edge cell\n      if (i + width > worldLength - 1) {\n        bottomEdgeDelta = worldLength;\n      }\n\n      // This is a left-edge cell\n      if ((i + width) % width == 0) {\n        leftEdgeDelta = width;\n      }\n\n      // Top\n      if (originalWorldBytes[i - width + topEdgeDelta] == livingCell) {\n        numLiveNeighbours++;\n      }\n\n      // Top right\n      if (originalWorldBytes[i - rightEdgeDelta + 1 - width + topEdgeDelta] == livingCell) {\n        numLiveNeighbours++;\n      }\n\n      // The one to the right of it\n      if (originalWorldBytes[i - rightEdgeDelta + 1] == livingCell) {\n        numLiveNeighbours++;\n      }\n\n      // Top left\n      if (originalWorldBytes[i - (width + 1) + topEdgeDelta + leftEdgeDelta] == livingCell) {\n        numLiveNeighbours++;\n      }\n\n      // The one to the left of it\n      if (originalWorldBytes[i - 1 + leftEdgeDelta] == livingCell) {\n        numLiveNeighbours++;\n      }\n\n      // Bottom left\n      if (originalWorldBytes[i + width - bottomEdgeDelta - 1 + leftEdgeDelta] == livingCell) {\n        numLiveNeighbours++;\n      }\n\n      // Bottom\n      if (originalWorldBytes[i + width - bottomEdgeDelta] == livingCell) {\n        numLiveNeighbours++;\n      }\n\n      // Bottom right\n      if (originalWorldBytes[i + width - bottomEdgeDelta + 1 - rightEdgeDelta] == livingCell) {\n        numLiveNeighbours++;\n      }\n\n      if (originalWorldBytes[i] == livingCell) {\n        if (numLiveNeighbours == 2 || numLiveNeighbours == 3) {\n          resultWorldBytes[i] = 'O';\n        } else {\n          resultWorldBytes[i] = '.';\n        }\n      } else {\n        if (numLiveNeighbours == 3) {\n          resultWorldBytes[i] = 'O';\n        } else {\n          resultWorldBytes[i] = '.';\n        }\n      }\n    }\n    return string(resultWorldBytes);\n  }\n}\n",
  "sourcePath": "/Users/dan/Code/conwaysgame/solidity-ethereum/contracts/ConwaysGameOfLife.sol",
  "compiler": {
    "name": "solc",
    "version": "0.7.4+commit.3f05b770.Emscripten.clang"
  },
  "schemaVersion": "3.3.3",
  "updatedAt": "2021-01-10T02:54:27.494Z",
  "networkType": "ethereum",
  "devdoc": {
    "kind": "dev",
    "methods": {},
    "version": 1
  },
  "userdoc": {
    "kind": "user",
    "methods": {},
    "version": 1
  }
}