{
  "contractName": "ConwaysGameOfLife",
  "abi": [
    {
      "stateMutability": "payable",
      "type": "fallback",
      "payable": true
    },
    {
      "stateMutability": "payable",
      "type": "receive",
      "payable": true
    },
    {
      "inputs": [],
      "name": "getWorld",
      "outputs": [
        {
          "internalType": "string",
          "name": "",
          "type": "string"
        }
      ],
      "stateMutability": "view",
      "type": "function",
      "constant": true
    }
  ],
  "bytecode": "0x60806040526040518060400160405280601981526020017f2e4f2e2e2e2e2e4f2e2e4f4f4f2e2e2e2e2e2e2e2e2e2e2e2e000000000000008152506000908051906020019061004f929190610062565b5034801561005c57600080fd5b5061010d565b828054600181600116156101000203166002900490600052602060002090601f01602090048101928261009857600085556100df565b82601f106100b157805160ff19168380011785556100df565b828001600101855582156100df579182015b828111156100de5782518255916020019190600101906100c3565b5b5090506100ec91906100f0565b5090565b5b808211156101095760008160009055506001016100f1565b5090565b6109bd8061011c6000396000f3fe6080604052600436106100225760003560e01c806398f01156146107aa576107a8565b366107a8576509184e72a00034106107a657606060008054600181600116156101000203166002900480601f0160208091040260200160405190810160405280929190818152602001828054600181600116156101000203166002900480156100cc5780601f106100a1576101008083540402835291602001916100cc565b820191906000526020600020905b8154815290600101906020018083116100af57829003601f168201915b505050505090506060815167ffffffffffffffff811180156100ed57600080fd5b506040519080825280601f01601f1916602001820160405280156101205781602001600182028036833780820191505090505b5090506000806000806000805b601981101561072b576000915060009550600094506000935060009250600581101561015857601995505b60006005600183018161016757fe5b06141561017357600594505b601860058201111561018457601993505b600060058083018161019257fe5b06141561019e57600592505b7f4f0000000000000000000000000000000000000000000000000000000000000088876005840301815181106101d057fe5b602001015160f81c60f81b7effffffffffffffffffffffffffffffffffffffffffffffffffffffffffffff1916141561020c5781806001019250505b7f4f000000000000000000000000000000000000000000000000000000000000008887600560018986030103018151811061024357fe5b602001015160f81c60f81b7effffffffffffffffffffffffffffffffffffffffffffffffffffffffffffff1916141561027f5781806001019250505b7f4f0000000000000000000000000000000000000000000000000000000000000088600187840301815181106102b157fe5b602001015160f81c60f81b7effffffffffffffffffffffffffffffffffffffffffffffffffffffffffffff191614156102ed5781806001019250505b7f4f000000000000000000000000000000000000000000000000000000000000008884886006850301018151811061032157fe5b602001015160f81c60f81b7effffffffffffffffffffffffffffffffffffffffffffffffffffffffffffff1916141561035d5781806001019250505b7f4f00000000000000000000000000000000000000000000000000000000000000888460018403018151811061038f57fe5b602001015160f81c60f81b7effffffffffffffffffffffffffffffffffffffffffffffffffffffffffffff191614156103cb5781806001019250505b7f4f000000000000000000000000000000000000000000000000000000000000008884600187600586010303018151811061040257fe5b602001015160f81c60f81b7effffffffffffffffffffffffffffffffffffffffffffffffffffffffffffff1916141561043e5781806001019250505b7f4f00000000000000000000000000000000000000000000000000000000000000888560058401038151811061047057fe5b602001015160f81c60f81b7effffffffffffffffffffffffffffffffffffffffffffffffffffffffffffff191614156104ac5781806001019250505b7f4f00000000000000000000000000000000000000000000000000000000000000888660018760058601030103815181106104e357fe5b602001015160f81c60f81b7effffffffffffffffffffffffffffffffffffffffffffffffffffffffffffff1916141561051f5781806001019250505b7f4f0000000000000000000000000000000000000000000000000000000000000088828151811061054c57fe5b602001015160f81c60f81b7effffffffffffffffffffffffffffffffffffffffffffffffffffffffffffff1916141561065657600282148061058e5750600382145b156105f4577f4f000000000000000000000000000000000000000000000000000000000000008782815181106105c057fe5b60200101907effffffffffffffffffffffffffffffffffffffffffffffffffffffffffffff1916908160001a905350610651565b7f2e0000000000000000000000000000000000000000000000000000000000000087828151811061062157fe5b60200101907effffffffffffffffffffffffffffffffffffffffffffffffffffffffffffff1916908160001a9053505b61071e565b60038214156106c0577f4f0000000000000000000000000000000000000000000000000000000000000087828151811061068c57fe5b60200101907effffffffffffffffffffffffffffffffffffffffffffffffffffffffffffff1916908160001a90535061071d565b7f2e000000000000000000000000000000000000000000000000000000000000008782815181106106ed57fe5b60200101907effffffffffffffffffffffffffffffffffffffffffffffffffffffffffffff1916908160001a9053505b5b808060010191505061012d565b5085600090805190602001906107429291906108dc565b5073860c8513de758223c59d7dfc544298b4bf05928873ffffffffffffffffffffffffffffffffffffffff166108fc349081150290604051600060405180830381858888f1935050505015801561079d573d6000803e3d6000fd5b50505050505050505b005b005b3480156107b657600080fd5b506107bf61083a565b6040518080602001828103825283818151815260200191508051906020019080838360005b838110156107ff5780820151818401526020810190506107e4565b50505050905090810190601f16801561082c5780820380516001836020036101000a031916815260200191505b509250505060405180910390f35b606060008054600181600116156101000203166002900480601f0160208091040260200160405190810160405280929190818152602001828054600181600116156101000203166002900480156108d25780601f106108a7576101008083540402835291602001916108d2565b820191906000526020600020905b8154815290600101906020018083116108b557829003601f168201915b5050505050905090565b828054600181600116156101000203166002900490600052602060002090601f0160209004810192826109125760008555610959565b82601f1061092b57805160ff1916838001178555610959565b82800160010185558215610959579182015b8281111561095857825182559160200191906001019061093d565b5b509050610966919061096a565b5090565b5b8082111561098357600081600090555060010161096b565b509056fea2646970667358221220036990ccbcaa20be8b6ab39ba9368deb09577cf0d5c1733114424a3dfe21661264736f6c63430007040033",
  "immutableReferences": {},
  "source": "// SPDX-License-Identifier: MIT\npragma solidity >=0.4.22 <0.9.0;\n\n\ncontract ConwaysGameOfLife {\n  string world = '.O.....O..OOO............';\n\n  receive() external payable {\n    // Greater than or equal to 0.00001\n    // below this is just for gas\n    if (msg.value >= 10000000000000) {\n      bytes memory originalWorldBytes = bytes(world);\n      bytes memory resultWorldBytes = new bytes(originalWorldBytes.length);\n      uint topEdgeDelta = 0;\n      uint rightEdgeDelta = 0;\n      uint bottomEdgeDelta = 0;\n      uint leftEdgeDelta = 0;\n      uint numLiveNeighbours = 0;\n\n      for(uint i=0;i<25;i++) {\n        numLiveNeighbours = 0;\n        topEdgeDelta = 0;\n        rightEdgeDelta = 0;\n        bottomEdgeDelta = 0;\n        leftEdgeDelta = 0;\n\n        // This is a top-edge cell\n        if (i < 5) {\n          topEdgeDelta = 25;\n        }\n\n        // This is right-edge cell\n        if ((i + 1) % 5 == 0) {\n          rightEdgeDelta = 5;\n        }\n\n        // This is a bottom-edge cell\n        if (i + 5 > 25 - 1) {\n          bottomEdgeDelta = 25;\n        }\n\n        // This is a left-edge cell\n        if ((i + 5) % 5 == 0) {\n          leftEdgeDelta = 5;\n        }\n\n        // Top\n        if (originalWorldBytes[i - 5 + topEdgeDelta] == 'O') {\n          numLiveNeighbours++;\n        }\n\n        // Top right\n        if (originalWorldBytes[i - rightEdgeDelta + 1 - 5 + topEdgeDelta] == 'O') {\n          numLiveNeighbours++;\n        }\n\n        // The one to the right of it\n        if (originalWorldBytes[i - rightEdgeDelta + 1] == 'O') {\n          numLiveNeighbours++;\n        }\n\n        // Top left\n        if (originalWorldBytes[i - (5 + 1) + topEdgeDelta + leftEdgeDelta] == 'O') {\n          numLiveNeighbours++;\n        }\n\n        // The one to the left of it\n        if (originalWorldBytes[i - 1 + leftEdgeDelta] == 'O') {\n          numLiveNeighbours++;\n        }\n\n        // Bottom left\n        if (originalWorldBytes[i + 5 - bottomEdgeDelta - 1 + leftEdgeDelta] == 'O') {\n          numLiveNeighbours++;\n        }\n\n        // Bottom\n        if (originalWorldBytes[i + 5 - bottomEdgeDelta] == 'O') {\n          numLiveNeighbours++;\n        }\n\n        // Bottom right\n        if (originalWorldBytes[i + 5 - bottomEdgeDelta + 1 - rightEdgeDelta] == 'O') {\n          numLiveNeighbours++;\n        }\n\n        if (originalWorldBytes[i] == 'O') {\n          if (numLiveNeighbours == 2 || numLiveNeighbours == 3) {\n            resultWorldBytes[i] = 'O';\n          } else {\n            resultWorldBytes[i] = '.';\n          }\n        } else {\n          if (numLiveNeighbours == 3) {\n            resultWorldBytes[i] = 'O';\n          } else {\n            resultWorldBytes[i] = '.';\n          }\n        }\n      }\n      // return string(resultWorldBytes);\n      world = string(resultWorldBytes);\n      // For now this is a test address. I will have it go to EFF for real.\n      payable(address(0x860c8513dE758223C59D7dFc544298b4Bf059288)).transfer(msg.value);\n    }\n  }\n\n  fallback() external payable {  }\n\n  function getWorld() public view returns(string memory) {\n    return world;\n  }\n\n  // Uncomment when running tests\n  // function setWorld(string memory newWorld) public {\n  //   world = newWorld;\n  // }\n\n  // function nextBoard() private view returns(string memory) {\n  //   bytes memory originalWorldBytes = bytes(world);\n  //   bytes memory resultWorldBytes = new bytes(originalWorldBytes.length);\n  //   uint topEdgeDelta = 0;\n  //   uint rightEdgeDelta = 0;\n  //   uint bottomEdgeDelta = 0;\n  //   uint leftEdgeDelta = 0;\n  //   uint numLiveNeighbours = 0;\n\n  //   byte livingCell = byte('O');\n\n  //   // Maximum for this is 8, so 8 bits is more than enough\n\n  //   for(uint i=0;i<25;i++) {\n  //     numLiveNeighbours = 0;\n  //     topEdgeDelta = 0;\n  //     rightEdgeDelta = 0;\n  //     bottomEdgeDelta = 0;\n  //     leftEdgeDelta = 0;\n\n  //     // This is a top-edge cell\n  //     if (i < 5) {\n  //       topEdgeDelta = 25;\n  //     }\n\n  //     // This is right-edge cell\n  //     if ((i + 1) % 5 == 0) {\n  //       rightEdgeDelta = 5;\n  //     }\n\n  //     // This is a bottom-edge cell\n  //     if (i + 5 > 25 - 1) {\n  //       bottomEdgeDelta = 25;\n  //     }\n\n  //     // This is a left-edge cell\n  //     if ((i + 5) % 5 == 0) {\n  //       leftEdgeDelta = 5;\n  //     }\n\n  //     // Top\n  //     if (originalWorldBytes[i - 5 + topEdgeDelta] == livingCell) {\n  //       numLiveNeighbours++;\n  //     }\n\n  //     // Top right\n  //     if (originalWorldBytes[i - rightEdgeDelta + 1 - 5 + topEdgeDelta] == livingCell) {\n  //       numLiveNeighbours++;\n  //     }\n\n  //     // The one to the right of it\n  //     if (originalWorldBytes[i - rightEdgeDelta + 1] == livingCell) {\n  //       numLiveNeighbours++;\n  //     }\n\n  //     // Top left\n  //     if (originalWorldBytes[i - (5 + 1) + topEdgeDelta + leftEdgeDelta] == livingCell) {\n  //       numLiveNeighbours++;\n  //     }\n\n  //     // The one to the left of it\n  //     if (originalWorldBytes[i - 1 + leftEdgeDelta] == livingCell) {\n  //       numLiveNeighbours++;\n  //     }\n\n  //     // Bottom left\n  //     if (originalWorldBytes[i + 5 - bottomEdgeDelta - 1 + leftEdgeDelta] == livingCell) {\n  //       numLiveNeighbours++;\n  //     }\n\n  //     // Bottom\n  //     if (originalWorldBytes[i + 5 - bottomEdgeDelta] == livingCell) {\n  //       numLiveNeighbours++;\n  //     }\n\n  //     // Bottom right\n  //     if (originalWorldBytes[i + 5 - bottomEdgeDelta + 1 - rightEdgeDelta] == livingCell) {\n  //       numLiveNeighbours++;\n  //     }\n\n  //     if (originalWorldBytes[i] == livingCell) {\n  //       if (numLiveNeighbours == 2 || numLiveNeighbours == 3) {\n  //         resultWorldBytes[i] = 'O';\n  //       } else {\n  //         resultWorldBytes[i] = '.';\n  //       }\n  //     } else {\n  //       if (numLiveNeighbours == 3) {\n  //         resultWorldBytes[i] = 'O';\n  //       } else {\n  //         resultWorldBytes[i] = '.';\n  //       }\n  //     }\n  //   }\n  //   return string(resultWorldBytes);\n  // }\n}\n",
  "sourcePath": "/Users/dan/Code/conwaysgame/solidity-ethereum/contracts/ConwaysGameOfLife.sol",
  "compiler": {
    "name": "solc",
    "version": "0.7.4+commit.3f05b770.Emscripten.clang"
  },
  "schemaVersion": "3.3.3",
  "updatedAt": "2021-01-15T04:22:12.541Z",
  "networkType": "ethereum",
  "devdoc": {
    "kind": "dev",
    "methods": {},
    "version": 1
  },
  "userdoc": {
    "kind": "user",
    "methods": {},
    "version": 1
  }
}