{
  "contractName": "ConwaysGameOfLife",
  "abi": [
    {
      "inputs": [],
      "stateMutability": "nonpayable",
      "type": "constructor"
    },
    {
      "stateMutability": "payable",
      "type": "fallback",
      "payable": true
    },
    {
      "stateMutability": "payable",
      "type": "receive",
      "payable": true
    },
    {
      "inputs": [],
      "name": "getWorld",
      "outputs": [
        {
          "internalType": "string",
          "name": "",
          "type": "string"
        }
      ],
      "stateMutability": "view",
      "type": "function",
      "constant": true
    },
    {
      "inputs": [
        {
          "internalType": "string",
          "name": "newWorld",
          "type": "string"
        }
      ],
      "name": "setWorld",
      "outputs": [
        {
          "internalType": "bool",
          "name": "success",
          "type": "bool"
        }
      ],
      "stateMutability": "nonpayable",
      "type": "function"
    },
    {
      "inputs": [
        {
          "internalType": "uint256",
          "name": "newWidth",
          "type": "uint256"
        }
      ],
      "name": "setWidth",
      "outputs": [
        {
          "internalType": "bool",
          "name": "success",
          "type": "bool"
        }
      ],
      "stateMutability": "nonpayable",
      "type": "function"
    }
  ],
  "bytecode": "0x608060405234801561001057600080fd5b506040518060400160405280601981526020017f2e4f2e2e2e2e2e4f2e2e4f4f4f2e2e2e2e2e2e2e2e2e2e2e2e000000000000008152506000908051906020019061005c92919061006a565b506005600181905550610115565b828054600181600116156101000203166002900490600052602060002090601f0160209004810192826100a057600085556100e7565b82601f106100b957805160ff19168380011785556100e7565b828001600101855582156100e7579182015b828111156100e65782518255916020019190600101906100cb565b5b5090506100f491906100f8565b5090565b5b808211156101115760008160009055506001016100f9565b5090565b610c0f806101246000396000f3fe6080604052600436106100385760003560e01c806332b4f44b1461006d578063648b62ed1461014b57806398f011561461019c5761006b565b3661006b576509184e72a00034106100695761005261022c565b60009080519060200190610067929190610b2e565b505b005b005b34801561007957600080fd5b506101336004803603602081101561009057600080fd5b81019080803590602001906401000000008111156100ad57600080fd5b8201836020820111156100bf57600080fd5b803590602001918460018302840111640100000000831117156100e157600080fd5b91908080601f016020809104026020016040519081016040528093929190818152602001838380828437600081840152601f19601f820116905080830192505050505050509192919290505050610a60565b60405180821515815260200191505060405180910390f35b34801561015757600080fd5b506101846004803603602081101561016e57600080fd5b8101908080359060200190929190505050610a7e565b60405180821515815260200191505060405180910390f35b3480156101a857600080fd5b506101b1610a8c565b6040518080602001828103825283818151815260200191508051906020019080838360005b838110156101f15780820151818401526020810190506101d6565b50505050905090810190601f16801561021e5780820380516001836020036101000a031916815260200191505b509250505060405180910390f35b60608060008054600181600116156101000203166002900480601f0160208091040260200160405190810160405280929190818152602001828054600181600116156101000203166002900480156102c55780601f1061029a576101008083540402835291602001916102c5565b820191906000526020600020905b8154815290600101906020018083116102a857829003601f168201915b505050505090506060815167ffffffffffffffff811180156102e657600080fd5b506040519080825280601f01601f1916602001820160405280156103195781602001600182028036833780820191505090505b5090506000808351905060005b81811015610a555760009250600180540181106103cf577f4f000000000000000000000000000000000000000000000000000000000000007effffffffffffffffffffffffffffffffffffffffffffffffffffffffffffff191685600180540183038151811061039257fe5b602001015160f81c60f81b7effffffffffffffffffffffffffffffffffffffffffffffffffffffffffffff191614156103ce5782806001019350505b5b6001548110610468577f4f000000000000000000000000000000000000000000000000000000000000007effffffffffffffffffffffffffffffffffffffffffffffffffffffffffffff19168560015483038151811061042b57fe5b602001015160f81c60f81b7effffffffffffffffffffffffffffffffffffffffffffffffffffffffffffff191614156104675782806001019350505b5b6001546001820110610507577f4f000000000000000000000000000000000000000000000000000000000000007effffffffffffffffffffffffffffffffffffffffffffffffffffffffffffff1916856001546001840103815181106104ca57fe5b602001015160f81c60f81b7effffffffffffffffffffffffffffffffffffffffffffffffffffffffffffff191614156105065782806001019350505b5b600081111561059f577f4f000000000000000000000000000000000000000000000000000000000000007effffffffffffffffffffffffffffffffffffffffffffffffffffffffffffff191685600183038151811061056257fe5b602001015160f81c60f81b7effffffffffffffffffffffffffffffffffffffffffffffffffffffffffffff1916141561059e5782806001019350505b5b81600182011015610639577f4f000000000000000000000000000000000000000000000000000000000000007effffffffffffffffffffffffffffffffffffffffffffffffffffffffffffff19168560018301815181106105fc57fe5b602001015160f81c60f81b7effffffffffffffffffffffffffffffffffffffffffffffffffffffffffffff191614156106385782806001019350505b5b600182036001805483010310156106dc577f4f000000000000000000000000000000000000000000000000000000000000007effffffffffffffffffffffffffffffffffffffffffffffffffffffffffffff191685600180548401038151811061069f57fe5b602001015160f81c60f81b7effffffffffffffffffffffffffffffffffffffffffffffffffffffffffffff191614156106db5782806001019350505b5b600182036001548201101561077b577f4f000000000000000000000000000000000000000000000000000000000000007effffffffffffffffffffffffffffffffffffffffffffffffffffffffffffff19168560015483018151811061073e57fe5b602001015160f81c60f81b7effffffffffffffffffffffffffffffffffffffffffffffffffffffffffffff1916141561077a5782806001019350505b5b6001820360018054830101101561081e577f4f000000000000000000000000000000000000000000000000000000000000007effffffffffffffffffffffffffffffffffffffffffffffffffffffffffffff19168560018054840101815181106107e157fe5b602001015160f81c60f81b7effffffffffffffffffffffffffffffffffffffffffffffffffffffffffffff1916141561081d5782806001019350505b5b7f4f000000000000000000000000000000000000000000000000000000000000007effffffffffffffffffffffffffffffffffffffffffffffffffffffffffffff191685828151811061086d57fe5b602001015160f81c60f81b7effffffffffffffffffffffffffffffffffffffffffffffffffffffffffffff1916141561097d5760028360ff1614806108b5575060038360ff16145b1561091b577f4f000000000000000000000000000000000000000000000000000000000000008482815181106108e757fe5b60200101907effffffffffffffffffffffffffffffffffffffffffffffffffffffffffffff1916908160001a905350610978565b7f2e0000000000000000000000000000000000000000000000000000000000000084828151811061094857fe5b60200101907effffffffffffffffffffffffffffffffffffffffffffffffffffffffffffff1916908160001a9053505b610a48565b60038360ff1614156109ea577f4f000000000000000000000000000000000000000000000000000000000000008482815181106109b657fe5b60200101907effffffffffffffffffffffffffffffffffffffffffffffffffffffffffffff1916908160001a905350610a47565b7f2e00000000000000000000000000000000000000000000000000000000000000848281518110610a1757fe5b60200101907effffffffffffffffffffffffffffffffffffffffffffffffffffffffffffff1916908160001a9053505b5b8080600101915050610326565b508294505050505090565b60008160009080519060200190610a78929190610b2e565b50919050565b600081600181905550919050565b606060008054600181600116156101000203166002900480601f016020809104026020016040519081016040528092919081815260200182805460018160011615610100020316600290048015610b245780601f10610af957610100808354040283529160200191610b24565b820191906000526020600020905b815481529060010190602001808311610b0757829003601f168201915b5050505050905090565b828054600181600116156101000203166002900490600052602060002090601f016020900481019282610b645760008555610bab565b82601f10610b7d57805160ff1916838001178555610bab565b82800160010185558215610bab579182015b82811115610baa578251825591602001919060010190610b8f565b5b509050610bb89190610bbc565b5090565b5b80821115610bd5576000816000905550600101610bbd565b509056fea2646970667358221220f2b991830925716ef5890e1d09e726220abb8ff11686ac67bd34cdc7986ea5e464736f6c63430007040033",
  "immutableReferences": {},
  "source": "// SPDX-License-Identifier: MIT\npragma solidity >=0.4.22 <0.9.0;\n\n\ncontract ConwaysGameOfLife {\n  string world;\n  uint width;\n\n  constructor() {\n    world = '.O.....O..OOO............';\n    width = 5;\n  }\n\n  receive() external payable {\n    // Greater than or equal to 0.00001\n    // below this is just for gas\n    if (msg.value >= 10000000000000) {\n      world = nextBoard();\n    }\n  }\n\n  fallback() external payable {  }\n\n  function getWorld() public view returns(string memory) {\n    return world;\n  }\n\n  function setWorld(string memory newWorld) public returns(bool success) {\n    world = newWorld;\n  }\n\n  function setWidth(uint newWidth) public returns(bool success) {\n    width = newWidth;\n  }\n\n  function nextBoard() private view returns(string memory) {\n    bytes memory originalWorldBytes = bytes(world);\n    bytes memory resultWorldBytes = new bytes(originalWorldBytes.length);\n\n    // Maximum for this is 8, so 8 bits is more than enough\n    uint8 numLiveNeighbours = 0;\n    uint worldLength = originalWorldBytes.length;\n\n    for(uint i=0;i<worldLength;i++) {\n      numLiveNeighbours = 0;\n      // Top left\n      // if (i >= (width + 1)) {\n      //   i - (width + 1)\n      // }\n      // if (i > 0) {\n      //   if (originalWorldBytes)\n      // }\n\n      // This isn't quite right yet. It will not always check the correct one,\n      // e.g. if the cell is on the right (i % width - 1 == 0) or the left (i % width == 0)\n      // In those cases I think it should go back to the start or the end of the line\n\n      // Top left\n      // Unsigned int, needs to be compared weirdly\n      if (i >= width + 1) {\n        if (originalWorldBytes[i - (width + 1)] == byte('O')) {\n          numLiveNeighbours++;\n        }\n      }\n\n      // Top\n      // Unsigned int, needs to be compared weirdly\n      if (i >= width) {\n        if (originalWorldBytes[i - width] == byte('O')) {\n          numLiveNeighbours++;\n        }\n      }\n\n      // Top right\n      // Unsigned int, needs to be compared weirdly\n      if (i + 1 >= width) {\n        if (originalWorldBytes[i + 1 - width] == byte('O')) {\n          numLiveNeighbours++;\n        }\n      }\n\n      // The one to the left of it\n      if (i > 0) {\n        if (originalWorldBytes[i - 1] == byte('O')) {\n          numLiveNeighbours++;\n        }\n      }\n\n      // The one to the right of it\n      if (i + 1 < worldLength) {\n        if (originalWorldBytes[i + 1] == byte('O')) {\n          numLiveNeighbours++;\n        }\n      }\n\n      // Bottom left\n      if (i + width - 1 < worldLength - 1) {\n        if (originalWorldBytes[i + width - 1] == byte('O')) {\n          numLiveNeighbours++;\n        }\n      }\n\n      // Bottom\n      if (i + width < worldLength - 1) {\n        if (originalWorldBytes[i + width] == byte('O')) {\n          numLiveNeighbours++;\n        }\n      }\n\n      // Bottom right\n      if (i + width + 1 < worldLength - 1) {\n        if (originalWorldBytes[i + width + 1] == byte('O')) {\n          numLiveNeighbours++;\n        }\n      }\n\n      if (originalWorldBytes[i] == byte('O')) {\n        if (numLiveNeighbours == 2 || numLiveNeighbours == 3) {\n          resultWorldBytes[i] = 'O';\n        } else {\n          resultWorldBytes[i] = '.';\n        }\n      } else {\n        if (numLiveNeighbours == 3) {\n          resultWorldBytes[i] = 'O';\n        } else {\n          resultWorldBytes[i] = '.';\n        }\n      }\n    }\n    return string(resultWorldBytes);\n  }\n}\n",
  "sourcePath": "/Users/dan/Code/conwaysgame/solidity-ethereum/contracts/ConwaysGameOfLife.sol",
  "compiler": {
    "name": "solc",
    "version": "0.7.4+commit.3f05b770.Emscripten.clang"
  },
  "schemaVersion": "3.3.3",
  "updatedAt": "2021-01-09T06:53:34.890Z",
  "networkType": "ethereum",
  "devdoc": {
    "kind": "dev",
    "methods": {},
    "version": 1
  },
  "userdoc": {
    "kind": "user",
    "methods": {},
    "version": 1
  }
}