{
  "contractName": "ConwaysGameOfLife",
  "abi": [
    {
      "inputs": [],
      "stateMutability": "nonpayable",
      "type": "constructor"
    },
    {
      "stateMutability": "payable",
      "type": "fallback",
      "payable": true
    },
    {
      "stateMutability": "payable",
      "type": "receive",
      "payable": true
    },
    {
      "inputs": [],
      "name": "getWorld",
      "outputs": [
        {
          "internalType": "string",
          "name": "",
          "type": "string"
        }
      ],
      "stateMutability": "view",
      "type": "function",
      "constant": true
    },
    {
      "inputs": [
        {
          "internalType": "string",
          "name": "newWorld",
          "type": "string"
        }
      ],
      "name": "setWorld",
      "outputs": [],
      "stateMutability": "nonpayable",
      "type": "function"
    }
  ],
  "bytecode": "0x608060405234801561001057600080fd5b506040518060400160405280601981526020017f2e4f2e2e2e2e2e4f2e2e4f4f4f2e2e2e2e2e2e2e2e2e2e2e2e000000000000008152506000908051906020019061005c929190610099565b506005600160006101000a81548160ff021916908360ff16021790555060196001806101000a81548160ff021916908360ff160217905550610144565b828054600181600116156101000203166002900490600052602060002090601f0160209004810192826100cf5760008555610116565b82601f106100e857805160ff1916838001178555610116565b82800160010185558215610116579182015b828111156101155782518255916020019190600101906100fa565b5b5090506101239190610127565b5090565b5b80821115610140576000816000905550600101610128565b5090565b610ce2806101536000396000f3fe60806040526004361061002d5760003560e01c806332b4f44b1461006257806398f011561461012a57610060565b36610060576509184e72a000341061005e576100476101ba565b6000908051906020019061005c929190610c01565b505b005b005b34801561006e57600080fd5b506101286004803603602081101561008557600080fd5b81019080803590602001906401000000008111156100a257600080fd5b8201836020820111156100b457600080fd5b803590602001918460018302840111640100000000831117156100d657600080fd5b91908080601f016020809104026020016040519081016040528093929190818152602001838380828437600081840152601f19601f820116905080830192505050505050509192919290505050610b45565b005b34801561013657600080fd5b5061013f610b5f565b6040518080602001828103825283818151815260200191508051906020019080838360005b8381101561017f578082015181840152602081019050610164565b50505050905090810190601f1680156101ac5780820380516001836020036101000a031916815260200191505b509250505060405180910390f35b60608060008054600181600116156101000203166002900480601f0160208091040260200160405190810160405280929190818152602001828054600181600116156101000203166002900480156102535780601f1061022857610100808354040283529160200191610253565b820191906000526020600020905b81548152906001019060200180831161023657829003601f168201915b505050505090506060815167ffffffffffffffff8111801561027457600080fd5b506040519080825280601f01601f1916602001820160405280156102a75781602001600182028036833780820191505090505b5090506000806000806000805b60018054906101000a900460ff1660ff16811015610b375760009150600160009054906101000a900460ff1660ff168110156102ff5760018054906101000a900460ff169550610304565b600095505b6000600160009054906101000a900460ff1660ff16600183018161032457fe5b06141561034257600160009054906101000a900460ff169450610347565b600094505b60018060019054906101000a900460ff160360ff16600160009054906101000a900460ff1660ff168201111561038c5760018054906101000a900460ff169350610391565b600093505b6000600160009054906101000a900460ff1660ff16600160009054906101000a900460ff1660ff168301816103c257fe5b0614156103e057600160009054906101000a900460ff1692506103e5565b600092505b7f4f000000000000000000000000000000000000000000000000000000000000007effffffffffffffffffffffffffffffffffffffffffffffffffffffffffffff1916888460ff168860ff1660018060009054906101000a900460ff160160ff16850301018151811061045457fe5b602001015160f81c60f81b7effffffffffffffffffffffffffffffffffffffffffffffffffffffffffffff191614156104905781806001019250505b7f4f000000000000000000000000000000000000000000000000000000000000007effffffffffffffffffffffffffffffffffffffffffffffffffffffffffffff1916888760ff16600160009054906101000a900460ff1660ff16840301815181106104f857fe5b602001015160f81c60f81b7effffffffffffffffffffffffffffffffffffffffffffffffffffffffffffff191614156105345781806001019250505b7f4f000000000000000000000000000000000000000000000000000000000000007effffffffffffffffffffffffffffffffffffffffffffffffffffffffffffff1916888660ff168860ff16600160009054906101000a900460ff1660ff1660018601030103815181106105a457fe5b602001015160f81c60f81b7effffffffffffffffffffffffffffffffffffffffffffffffffffffffffffff191614156105e05781806001019250505b7f4f000000000000000000000000000000000000000000000000000000000000007effffffffffffffffffffffffffffffffffffffffffffffffffffffffffffff1916888460ff1660018403018151811061063757fe5b602001015160f81c60f81b7effffffffffffffffffffffffffffffffffffffffffffffffffffffffffffff191614156106735781806001019250505b7f4f000000000000000000000000000000000000000000000000000000000000007effffffffffffffffffffffffffffffffffffffffffffffffffffffffffffff1916888660ff166001840103815181106106ca57fe5b602001015160f81c60f81b7effffffffffffffffffffffffffffffffffffffffffffffffffffffffffffff191614156107065781806001019250505b7f4f000000000000000000000000000000000000000000000000000000000000007effffffffffffffffffffffffffffffffffffffffffffffffffffffffffffff1916888460ff168660ff1660018060009054906101000a900460ff1660ff1686010303018151811061077557fe5b602001015160f81c60f81b7effffffffffffffffffffffffffffffffffffffffffffffffffffffffffffff191614156107b15781806001019250505b7f4f000000000000000000000000000000000000000000000000000000000000007effffffffffffffffffffffffffffffffffffffffffffffffffffffffffffff1916888560ff16600160009054906101000a900460ff1660ff168401038151811061081957fe5b602001015160f81c60f81b7effffffffffffffffffffffffffffffffffffffffffffffffffffffffffffff191614156108555781806001019250505b7f4f000000000000000000000000000000000000000000000000000000000000007effffffffffffffffffffffffffffffffffffffffffffffffffffffffffffff1916888660ff168660ff1660018060009054906101000a900460ff1660ff168601010303815181106108c457fe5b602001015160f81c60f81b7effffffffffffffffffffffffffffffffffffffffffffffffffffffffffffff191614156109005781806001019250505b7f4f000000000000000000000000000000000000000000000000000000000000007effffffffffffffffffffffffffffffffffffffffffffffffffffffffffffff191688828151811061094f57fe5b602001015160f81c60f81b7effffffffffffffffffffffffffffffffffffffffffffffffffffffffffffff19161415610a5f5760028260ff161480610997575060038260ff16145b156109fd577f4f000000000000000000000000000000000000000000000000000000000000008782815181106109c957fe5b60200101907effffffffffffffffffffffffffffffffffffffffffffffffffffffffffffff1916908160001a905350610a5a565b7f2e00000000000000000000000000000000000000000000000000000000000000878281518110610a2a57fe5b60200101907effffffffffffffffffffffffffffffffffffffffffffffffffffffffffffff1916908160001a9053505b610b2a565b60038260ff161415610acc577f4f00000000000000000000000000000000000000000000000000000000000000878281518110610a9857fe5b60200101907effffffffffffffffffffffffffffffffffffffffffffffffffffffffffffff1916908160001a905350610b29565b7f2e00000000000000000000000000000000000000000000000000000000000000878281518110610af957fe5b60200101907effffffffffffffffffffffffffffffffffffffffffffffffffffffffffffff1916908160001a9053505b5b80806001019150506102b4565b508597505050505050505090565b8060009080519060200190610b5b929190610c01565b5050565b606060008054600181600116156101000203166002900480601f016020809104026020016040519081016040528092919081815260200182805460018160011615610100020316600290048015610bf75780601f10610bcc57610100808354040283529160200191610bf7565b820191906000526020600020905b815481529060010190602001808311610bda57829003601f168201915b5050505050905090565b828054600181600116156101000203166002900490600052602060002090601f016020900481019282610c375760008555610c7e565b82601f10610c5057805160ff1916838001178555610c7e565b82800160010185558215610c7e579182015b82811115610c7d578251825591602001919060010190610c62565b5b509050610c8b9190610c8f565b5090565b5b80821115610ca8576000816000905550600101610c90565b509056fea2646970667358221220e611f34ef1433c03807411198fe79076a649c46c0c7df4e4b4f10e56fbce602664736f6c63430007040033",
  "immutableReferences": {},
  "source": "// SPDX-License-Identifier: MIT\npragma solidity >=0.4.22 <0.9.0;\n\n\ncontract ConwaysGameOfLife {\n  string world;\n  uint8 width;\n  uint8 worldLength;\n\n  constructor() {\n    world = '.O.....O..OOO............';\n    width = 5;\n    worldLength = 25;\n  }\n\n  receive() external payable {\n    // Greater than or equal to 0.00001\n    // below this is just for gas\n    if (msg.value >= 10000000000000) {\n      world = nextBoard();\n    }\n  }\n\n  fallback() external payable {  }\n\n  function getWorld() public view returns(string memory) {\n    return world;\n  }\n\n  function setWorld(string memory newWorld) public {\n    world = newWorld;\n  }\n\n  function nextBoard() private view returns(string memory) {\n    bytes memory originalWorldBytes = bytes(world);\n    bytes memory resultWorldBytes = new bytes(originalWorldBytes.length);\n    uint8 topEdgeDelta = 0;\n    uint8 rightEdgeDelta = 0;\n    uint8 bottomEdgeDelta = 0;\n    uint8 leftEdgeDelta = 0;\n\n    // Maximum for this is 8, so 8 bits is more than enough\n    uint8 numLiveNeighbours = 0;\n\n    for(uint i=0;i<worldLength;i++) {\n      numLiveNeighbours = 0;\n\n      // This is a top-edge cell\n      if (i < width) {\n        topEdgeDelta = worldLength;\n      } else {\n        topEdgeDelta = 0;\n      }\n\n      // This is right-edge cell\n      if ((i + 1) % width == 0) {\n        rightEdgeDelta = width;\n      } else {\n        rightEdgeDelta = 0;\n      }\n\n      // This is a bottom-edge cell\n      if (i + width > worldLength - 1) {\n        bottomEdgeDelta = worldLength;\n      } else {\n        bottomEdgeDelta = 0;\n      }\n\n      // This is a left-edge cell\n      if ((i + width) % width == 0) {\n        leftEdgeDelta = width;\n      } else {\n        leftEdgeDelta = 0;\n      }\n\n      // Top left\n      if (originalWorldBytes[i - (width + 1) + topEdgeDelta + leftEdgeDelta] == byte('O')) {\n        numLiveNeighbours++;\n      }\n\n      // Top\n      if (originalWorldBytes[i - width + topEdgeDelta] == byte('O')) {\n        numLiveNeighbours++;\n      }\n\n      // Top right\n      if (originalWorldBytes[i + 1 - width + topEdgeDelta - rightEdgeDelta] == byte('O')) {\n        numLiveNeighbours++;\n      }\n\n      // The one to the left of it\n      if (originalWorldBytes[i - 1 + leftEdgeDelta] == byte('O')) {\n        numLiveNeighbours++;\n      }\n\n      // The one to the right of it\n      if (originalWorldBytes[i + 1 - rightEdgeDelta] == byte('O')) {\n        numLiveNeighbours++;\n      }\n\n      // Bottom left\n      if (originalWorldBytes[i + width - 1 - bottomEdgeDelta + leftEdgeDelta] == byte('O')) {\n        numLiveNeighbours++;\n      }\n\n      // Bottom\n      if (originalWorldBytes[i + width - bottomEdgeDelta] == byte('O')) {\n        numLiveNeighbours++;\n      }\n\n      // Bottom right\n      if (originalWorldBytes[i + width + 1 - bottomEdgeDelta - rightEdgeDelta] == byte('O')) {\n        numLiveNeighbours++;\n      }\n\n      if (originalWorldBytes[i] == byte('O')) {\n        if (numLiveNeighbours == 2 || numLiveNeighbours == 3) {\n          resultWorldBytes[i] = 'O';\n        } else {\n          resultWorldBytes[i] = '.';\n        }\n      } else {\n        if (numLiveNeighbours == 3) {\n          resultWorldBytes[i] = 'O';\n        } else {\n          resultWorldBytes[i] = '.';\n        }\n      }\n    }\n    return string(resultWorldBytes);\n  }\n}\n",
  "sourcePath": "/Users/dan/Code/conwaysgame/solidity-ethereum/contracts/ConwaysGameOfLife.sol",
  "compiler": {
    "name": "solc",
    "version": "0.7.4+commit.3f05b770.Emscripten.clang"
  },
  "schemaVersion": "3.3.3",
  "updatedAt": "2021-01-10T01:07:54.364Z",
  "networkType": "ethereum",
  "devdoc": {
    "kind": "dev",
    "methods": {},
    "version": 1
  },
  "userdoc": {
    "kind": "user",
    "methods": {},
    "version": 1
  }
}