{
  "contractName": "ConwaysGameOfLife",
  "abi": [
    {
      "inputs": [],
      "stateMutability": "nonpayable",
      "type": "constructor"
    },
    {
      "stateMutability": "payable",
      "type": "fallback"
    },
    {
      "stateMutability": "payable",
      "type": "receive"
    },
    {
      "inputs": [],
      "name": "getWorld",
      "outputs": [
        {
          "internalType": "string",
          "name": "",
          "type": "string"
        }
      ],
      "stateMutability": "view",
      "type": "function"
    },
    {
      "inputs": [],
      "name": "getWidth",
      "outputs": [
        {
          "internalType": "uint256",
          "name": "",
          "type": "uint256"
        }
      ],
      "stateMutability": "view",
      "type": "function"
    },
    {
      "inputs": [
        {
          "internalType": "string",
          "name": "newWorld",
          "type": "string"
        }
      ],
      "name": "setWorld",
      "outputs": [
        {
          "internalType": "bool",
          "name": "success",
          "type": "bool"
        }
      ],
      "stateMutability": "nonpayable",
      "type": "function"
    },
    {
      "inputs": [
        {
          "internalType": "uint256",
          "name": "newWidth",
          "type": "uint256"
        }
      ],
      "name": "setWidth",
      "outputs": [
        {
          "internalType": "bool",
          "name": "success",
          "type": "bool"
        }
      ],
      "stateMutability": "nonpayable",
      "type": "function"
    }
  ],
  "bytecode": "0x608060405234801561001057600080fd5b506040518060400160405280601981526020017f2e4f2e2e2e2e2e4f2e2e4f4f4f2e2e2e2e2e2e2e2e2e2e2e2e000000000000008152506000908051906020019061005c92919061006a565b506005600181905550610115565b828054600181600116156101000203166002900490600052602060002090601f0160209004810192826100a057600085556100e7565b82601f106100b957805160ff19168380011785556100e7565b828001600101855582156100e7579182015b828111156100e65782518255916020019190600101906100cb565b5b5090506100f491906100f8565b5090565b5b808211156101115760008160009055506001016100f9565b5090565b610c41806101246000396000f3fe6080604052600436106100435760003560e01c806332b4f44b1461006a578063648b62ed1461014857806398f0115614610199578063f8e195b31461022957610068565b3661006857610050610254565b60009080519060200190610065929190610b60565b50005b005b34801561007657600080fd5b506101306004803603602081101561008d57600080fd5b81019080803590602001906401000000008111156100aa57600080fd5b8201836020820111156100bc57600080fd5b803590602001918460018302840111640100000000831117156100de57600080fd5b91908080601f016020809104026020016040519081016040528093929190818152602001838380828437600081840152601f19601f820116905080830192505050505050509192919290505050610a88565b60405180821515815260200191505060405180910390f35b34801561015457600080fd5b506101816004803603602081101561016b57600080fd5b8101908080359060200190929190505050610aa6565b60405180821515815260200191505060405180910390f35b3480156101a557600080fd5b506101ae610ab4565b6040518080602001828103825283818151815260200191508051906020019080838360005b838110156101ee5780820151818401526020810190506101d3565b50505050905090810190601f16801561021b5780820380516001836020036101000a031916815260200191505b509250505060405180910390f35b34801561023557600080fd5b5061023e610b56565b6040518082815260200191505060405180910390f35b60608060008054600181600116156101000203166002900480601f0160208091040260200160405190810160405280929190818152602001828054600181600116156101000203166002900480156102ed5780601f106102c2576101008083540402835291602001916102ed565b820191906000526020600020905b8154815290600101906020018083116102d057829003601f168201915b505050505090506060815167ffffffffffffffff8111801561030e57600080fd5b506040519080825280601f01601f1916602001820160405280156103415781602001600182028036833780820191505090505b5090506000808351905060005b81811015610a7d5760009250600180540181106103f7577f4f000000000000000000000000000000000000000000000000000000000000007effffffffffffffffffffffffffffffffffffffffffffffffffffffffffffff19168560018054018303815181106103ba57fe5b602001015160f81c60f81b7effffffffffffffffffffffffffffffffffffffffffffffffffffffffffffff191614156103f65782806001019350505b5b6001548110610490577f4f000000000000000000000000000000000000000000000000000000000000007effffffffffffffffffffffffffffffffffffffffffffffffffffffffffffff19168560015483038151811061045357fe5b602001015160f81c60f81b7effffffffffffffffffffffffffffffffffffffffffffffffffffffffffffff1916141561048f5782806001019350505b5b600154600182011061052f577f4f000000000000000000000000000000000000000000000000000000000000007effffffffffffffffffffffffffffffffffffffffffffffffffffffffffffff1916856001546001840103815181106104f257fe5b602001015160f81c60f81b7effffffffffffffffffffffffffffffffffffffffffffffffffffffffffffff1916141561052e5782806001019350505b5b60008111156105c7577f4f000000000000000000000000000000000000000000000000000000000000007effffffffffffffffffffffffffffffffffffffffffffffffffffffffffffff191685600183038151811061058a57fe5b602001015160f81c60f81b7effffffffffffffffffffffffffffffffffffffffffffffffffffffffffffff191614156105c65782806001019350505b5b81600182011015610661577f4f000000000000000000000000000000000000000000000000000000000000007effffffffffffffffffffffffffffffffffffffffffffffffffffffffffffff191685600183018151811061062457fe5b602001015160f81c60f81b7effffffffffffffffffffffffffffffffffffffffffffffffffffffffffffff191614156106605782806001019350505b5b60018203600180548301031015610704577f4f000000000000000000000000000000000000000000000000000000000000007effffffffffffffffffffffffffffffffffffffffffffffffffffffffffffff19168560018054840103815181106106c757fe5b602001015160f81c60f81b7effffffffffffffffffffffffffffffffffffffffffffffffffffffffffffff191614156107035782806001019350505b5b60018203600154820110156107a3577f4f000000000000000000000000000000000000000000000000000000000000007effffffffffffffffffffffffffffffffffffffffffffffffffffffffffffff19168560015483018151811061076657fe5b602001015160f81c60f81b7effffffffffffffffffffffffffffffffffffffffffffffffffffffffffffff191614156107a25782806001019350505b5b60018203600180548301011015610846577f4f000000000000000000000000000000000000000000000000000000000000007effffffffffffffffffffffffffffffffffffffffffffffffffffffffffffff191685600180548401018151811061080957fe5b602001015160f81c60f81b7effffffffffffffffffffffffffffffffffffffffffffffffffffffffffffff191614156108455782806001019350505b5b7f4f000000000000000000000000000000000000000000000000000000000000007effffffffffffffffffffffffffffffffffffffffffffffffffffffffffffff191685828151811061089557fe5b602001015160f81c60f81b7effffffffffffffffffffffffffffffffffffffffffffffffffffffffffffff191614156109a55760028360ff1614806108dd575060038360ff16145b15610943577f4f0000000000000000000000000000000000000000000000000000000000000084828151811061090f57fe5b60200101907effffffffffffffffffffffffffffffffffffffffffffffffffffffffffffff1916908160001a9053506109a0565b7f2e0000000000000000000000000000000000000000000000000000000000000084828151811061097057fe5b60200101907effffffffffffffffffffffffffffffffffffffffffffffffffffffffffffff1916908160001a9053505b610a70565b60038360ff161415610a12577f4f000000000000000000000000000000000000000000000000000000000000008482815181106109de57fe5b60200101907effffffffffffffffffffffffffffffffffffffffffffffffffffffffffffff1916908160001a905350610a6f565b7f2e00000000000000000000000000000000000000000000000000000000000000848281518110610a3f57fe5b60200101907effffffffffffffffffffffffffffffffffffffffffffffffffffffffffffff1916908160001a9053505b5b808060010191505061034e565b508294505050505090565b60008160009080519060200190610aa0929190610b60565b50919050565b600081600181905550919050565b606060008054600181600116156101000203166002900480601f016020809104026020016040519081016040528092919081815260200182805460018160011615610100020316600290048015610b4c5780601f10610b2157610100808354040283529160200191610b4c565b820191906000526020600020905b815481529060010190602001808311610b2f57829003601f168201915b5050505050905090565b6000600154905090565b828054600181600116156101000203166002900490600052602060002090601f016020900481019282610b965760008555610bdd565b82601f10610baf57805160ff1916838001178555610bdd565b82800160010185558215610bdd579182015b82811115610bdc578251825591602001919060010190610bc1565b5b509050610bea9190610bee565b5090565b5b80821115610c07576000816000905550600101610bef565b509056fea26469706673582212207a4cc52be3c65bdfd385a205fb83b52e2dbc3e797cda8479629825fa665a798864736f6c63430007040033",
  "immutableReferences": {},
  "source": "// SPDX-License-Identifier: MIT\npragma solidity >=0.4.22 <0.9.0;\n\n\ncontract ConwaysGameOfLife {\n  string world;\n  uint width;\n\n  constructor() {\n    world = '.O.....O..OOO............';\n    width = 5;\n  }\n\n  receive() external payable {\n    world = nextBoard();\n    // numberOfDeposits = numberOfDeposits + 1;\n    // // More than 0.0001\n    // if (msg.value > 1000000000000000) {\n    //     lastTransaction = \"ResetBoard\";\n    // } else {\n    //     lastTransaction = \"Step\";\n    // }\n    // emit Received(msg.sender, msg.value);\n    // payable(dansAddress).transfer(msg.value);\n  }\n\n  fallback() external payable {  }\n\n  function getWorld() public view returns(string memory) {\n    return world;\n  }\n\n  function getWidth() public view returns(uint) {\n    return width;\n  }\n\n  function setWorld(string memory newWorld) public returns(bool success) {\n    world = newWorld;\n  }\n\n  function setWidth(uint newWidth) public returns(bool success) {\n    width = newWidth;\n  }\n\n  function nextBoard() private view returns(string memory) {\n    bytes memory originalWorldBytes = bytes(world);\n    bytes memory resultWorldBytes = new bytes(originalWorldBytes.length);\n\n    // Maximum for this is 8, so 8 bits is more than enough\n    uint8 numLiveNeighbours = 0;\n    uint worldLength = originalWorldBytes.length;\n\n    for(uint i=0;i<worldLength;i++) {\n      numLiveNeighbours = 0;\n      // Top left\n      // if (i >= (width + 1)) {\n      //   i - (width + 1)\n      // }\n      // if (i > 0) {\n      //   if (originalWorldBytes)\n      // }\n\n      // This isn't quite right yet. It will not always check the correct one,\n      // e.g. if the cell is on the right (i % width - 1 == 0) or the left (i % width == 0)\n      // In those cases I think it should go back to the start or the end of the line\n\n      // Top left\n      // Unsigned int, needs to be compared weirdly\n      if (i >= width + 1) {\n        if (originalWorldBytes[i - (width + 1)] == byte('O')) {\n          numLiveNeighbours++;\n        }\n      }\n\n      // Top\n      // Unsigned int, needs to be compared weirdly\n      if (i >= width) {\n        if (originalWorldBytes[i - width] == byte('O')) {\n          numLiveNeighbours++;\n        }\n      }\n\n      // Top right\n      // Unsigned int, needs to be compared weirdly\n      if (i + 1 >= width) {\n        if (originalWorldBytes[i + 1 - width] == byte('O')) {\n          numLiveNeighbours++;\n        }\n      }\n\n      // The one to the left of it\n      if (i > 0) {\n        if (originalWorldBytes[i - 1] == byte('O')) {\n          numLiveNeighbours++;\n        }\n      }\n\n      // The one to the right of it\n      if (i + 1 < worldLength) {\n        if (originalWorldBytes[i + 1] == byte('O')) {\n          numLiveNeighbours++;\n        }\n      }\n\n      // Bottom left\n      if (i + width - 1 < worldLength - 1) {\n        if (originalWorldBytes[i + width - 1] == byte('O')) {\n          numLiveNeighbours++;\n        }\n      }\n\n      // Bottom\n      if (i + width < worldLength - 1) {\n        if (originalWorldBytes[i + width] == byte('O')) {\n          numLiveNeighbours++;\n        }\n      }\n\n      // Bottom right\n      if (i + width + 1 < worldLength - 1) {\n        if (originalWorldBytes[i + width + 1] == byte('O')) {\n          numLiveNeighbours++;\n        }\n      }\n\n      if (originalWorldBytes[i] == byte('O')) {\n        if (numLiveNeighbours == 2 || numLiveNeighbours == 3) {\n          resultWorldBytes[i] = 'O';\n        } else {\n          resultWorldBytes[i] = '.';\n        }\n      } else {\n        if (numLiveNeighbours == 3) {\n          resultWorldBytes[i] = 'O';\n        } else {\n          resultWorldBytes[i] = '.';\n        }\n      }\n    }\n    return string(resultWorldBytes);\n  }\n}\n",
  "sourcePath": "/Users/dan/Code/conwaysgame/solidity-ethereum/contracts/ConwaysGameOfLife.sol",
  "compiler": {
    "name": "solc",
    "version": "0.7.4+commit.3f05b770.Emscripten.clang"
  },
  "schemaVersion": "3.3.3",
  "updatedAt": "2020-12-30T00:08:27.655Z",
  "devdoc": {
    "kind": "dev",
    "methods": {},
    "version": 1
  },
  "userdoc": {
    "kind": "user",
    "methods": {},
    "version": 1
  }
}